{
  "address": "0xAA3038a628dC0886C7a698167E102C66696604E4",
  "abi": [
    {
      "inputs": [
        {
          "internalType": "address",
          "name": "initialOwner",
          "type": "address"
        },
        {
          "internalType": "address",
          "name": "_TokenCenterContract",
          "type": "address"
        }
      ],
      "stateMutability": "nonpayable",
      "type": "constructor"
    },
    {
      "inputs": [
        {
          "internalType": "address",
          "name": "sender",
          "type": "address"
        },
        {
          "internalType": "uint256",
          "name": "tokenId",
          "type": "uint256"
        },
        {
          "internalType": "address",
          "name": "owner",
          "type": "address"
        }
      ],
      "name": "ERC721IncorrectOwner",
      "type": "error"
    },
    {
      "inputs": [
        {
          "internalType": "address",
          "name": "operator",
          "type": "address"
        },
        {
          "internalType": "uint256",
          "name": "tokenId",
          "type": "uint256"
        }
      ],
      "name": "ERC721InsufficientApproval",
      "type": "error"
    },
    {
      "inputs": [
        {
          "internalType": "address",
          "name": "approver",
          "type": "address"
        }
      ],
      "name": "ERC721InvalidApprover",
      "type": "error"
    },
    {
      "inputs": [
        {
          "internalType": "address",
          "name": "operator",
          "type": "address"
        }
      ],
      "name": "ERC721InvalidOperator",
      "type": "error"
    },
    {
      "inputs": [
        {
          "internalType": "address",
          "name": "owner",
          "type": "address"
        }
      ],
      "name": "ERC721InvalidOwner",
      "type": "error"
    },
    {
      "inputs": [
        {
          "internalType": "address",
          "name": "receiver",
          "type": "address"
        }
      ],
      "name": "ERC721InvalidReceiver",
      "type": "error"
    },
    {
      "inputs": [
        {
          "internalType": "address",
          "name": "sender",
          "type": "address"
        }
      ],
      "name": "ERC721InvalidSender",
      "type": "error"
    },
    {
      "inputs": [
        {
          "internalType": "uint256",
          "name": "tokenId",
          "type": "uint256"
        }
      ],
      "name": "ERC721NonexistentToken",
      "type": "error"
    },
    {
      "inputs": [
        {
          "internalType": "address",
          "name": "owner",
          "type": "address"
        }
      ],
      "name": "OwnableInvalidOwner",
      "type": "error"
    },
    {
      "inputs": [
        {
          "internalType": "address",
          "name": "account",
          "type": "address"
        }
      ],
      "name": "OwnableUnauthorizedAccount",
      "type": "error"
    },
    {
      "anonymous": false,
      "inputs": [
        {
          "indexed": true,
          "internalType": "address",
          "name": "owner",
          "type": "address"
        },
        {
          "indexed": true,
          "internalType": "address",
          "name": "approved",
          "type": "address"
        },
        {
          "indexed": true,
          "internalType": "uint256",
          "name": "tokenId",
          "type": "uint256"
        }
      ],
      "name": "Approval",
      "type": "event"
    },
    {
      "anonymous": false,
      "inputs": [
        {
          "indexed": true,
          "internalType": "address",
          "name": "owner",
          "type": "address"
        },
        {
          "indexed": true,
          "internalType": "address",
          "name": "operator",
          "type": "address"
        },
        {
          "indexed": false,
          "internalType": "bool",
          "name": "approved",
          "type": "bool"
        }
      ],
      "name": "ApprovalForAll",
      "type": "event"
    },
    {
      "anonymous": false,
      "inputs": [
        {
          "indexed": false,
          "internalType": "uint256",
          "name": "_fromTokenId",
          "type": "uint256"
        },
        {
          "indexed": false,
          "internalType": "uint256",
          "name": "_toTokenId",
          "type": "uint256"
        }
      ],
      "name": "BatchMetadataUpdate",
      "type": "event"
    },
    {
      "anonymous": false,
      "inputs": [
        {
          "indexed": false,
          "internalType": "uint256",
          "name": "_tokenId",
          "type": "uint256"
        }
      ],
      "name": "MetadataUpdate",
      "type": "event"
    },
    {
      "anonymous": false,
      "inputs": [
        {
          "indexed": false,
          "internalType": "uint256",
          "name": "tokenId",
          "type": "uint256"
        },
        {
          "indexed": true,
          "internalType": "address",
          "name": "holder",
          "type": "address"
        }
      ],
      "name": "Minted",
      "type": "event"
    },
    {
      "anonymous": false,
      "inputs": [
        {
          "indexed": true,
          "internalType": "address",
          "name": "previousOwner",
          "type": "address"
        },
        {
          "indexed": true,
          "internalType": "address",
          "name": "newOwner",
          "type": "address"
        }
      ],
      "name": "OwnershipTransferred",
      "type": "event"
    },
    {
      "anonymous": false,
      "inputs": [
        {
          "indexed": true,
          "internalType": "address",
          "name": "from",
          "type": "address"
        },
        {
          "indexed": true,
          "internalType": "address",
          "name": "to",
          "type": "address"
        },
        {
          "indexed": true,
          "internalType": "uint256",
          "name": "tokenId",
          "type": "uint256"
        }
      ],
      "name": "Transfer",
      "type": "event"
    },
    {
      "anonymous": false,
      "inputs": [
        {
          "indexed": false,
          "internalType": "uint256",
          "name": "tokenId",
          "type": "uint256"
        },
        {
          "indexed": true,
          "internalType": "address",
          "name": "holder",
          "type": "address"
        },
        {
          "indexed": true,
          "internalType": "address",
          "name": "to",
          "type": "address"
        }
      ],
      "name": "Transferred",
      "type": "event"
    },
    {
      "inputs": [
        {
          "internalType": "address",
          "name": "to",
          "type": "address"
        },
        {
          "internalType": "uint256",
          "name": "tokenId",
          "type": "uint256"
        }
      ],
      "name": "approve",
      "outputs": [],
      "stateMutability": "nonpayable",
      "type": "function"
    },
    {
      "inputs": [
        {
          "internalType": "address",
          "name": "owner",
          "type": "address"
        }
      ],
      "name": "balanceOf",
      "outputs": [
        {
          "internalType": "uint256",
          "name": "",
          "type": "uint256"
        }
      ],
      "stateMutability": "view",
      "type": "function"
    },
    {
      "inputs": [
        {
          "internalType": "uint256",
          "name": "tokenId",
          "type": "uint256"
        }
      ],
      "name": "getApproved",
      "outputs": [
        {
          "internalType": "address",
          "name": "",
          "type": "address"
        }
      ],
      "stateMutability": "view",
      "type": "function"
    },
    {
      "inputs": [
        {
          "internalType": "uint256",
          "name": "tokenId",
          "type": "uint256"
        }
      ],
      "name": "getLOTconnectedID",
      "outputs": [
        {
          "internalType": "uint256",
          "name": "",
          "type": "uint256"
        }
      ],
      "stateMutability": "view",
      "type": "function"
    },
    {
      "inputs": [
        {
          "internalType": "address",
          "name": "owner",
          "type": "address"
        },
        {
          "internalType": "address",
          "name": "operator",
          "type": "address"
        }
      ],
      "name": "isApprovedForAll",
      "outputs": [
        {
          "internalType": "bool",
          "name": "",
          "type": "bool"
        }
      ],
      "stateMutability": "view",
      "type": "function"
    },
    {
      "inputs": [
        {
          "internalType": "uint256",
          "name": "",
          "type": "uint256"
        }
      ],
      "name": "layerTolayerConnection",
      "outputs": [
        {
          "internalType": "uint256",
          "name": "",
          "type": "uint256"
        }
      ],
      "stateMutability": "view",
      "type": "function"
    },
    {
      "inputs": [
        {
          "internalType": "uint256",
          "name": "",
          "type": "uint256"
        }
      ],
      "name": "layerTwoInfoBank",
      "outputs": [
        {
          "internalType": "string",
          "name": "",
          "type": "string"
        }
      ],
      "stateMutability": "view",
      "type": "function"
    },
    {
      "inputs": [
        {
          "internalType": "string",
          "name": "wish",
          "type": "string"
        },
        {
          "internalType": "uint256",
          "name": "LOTid",
          "type": "uint256"
        },
        {
          "internalType": "string",
          "name": "uri",
          "type": "string"
        }
      ],
      "name": "mintTokenTwo",
      "outputs": [],
      "stateMutability": "payable",
      "type": "function"
    },
    {
      "inputs": [],
      "name": "name",
      "outputs": [
        {
          "internalType": "string",
          "name": "",
          "type": "string"
        }
      ],
      "stateMutability": "view",
      "type": "function"
    },
    {
      "inputs": [],
      "name": "owner",
      "outputs": [
        {
          "internalType": "address",
          "name": "",
          "type": "address"
        }
      ],
      "stateMutability": "view",
      "type": "function"
    },
    {
      "inputs": [
        {
          "internalType": "uint256",
          "name": "tokenId",
          "type": "uint256"
        }
      ],
      "name": "ownerOf",
      "outputs": [
        {
          "internalType": "address",
          "name": "",
          "type": "address"
        }
      ],
      "stateMutability": "view",
      "type": "function"
    },
    {
      "inputs": [],
      "name": "priceLTT",
      "outputs": [
        {
          "internalType": "uint256",
          "name": "",
          "type": "uint256"
        }
      ],
      "stateMutability": "view",
      "type": "function"
    },
    {
      "inputs": [],
      "name": "renounceOwnership",
      "outputs": [],
      "stateMutability": "nonpayable",
      "type": "function"
    },
    {
      "inputs": [
        {
          "internalType": "address",
          "name": "from",
          "type": "address"
        },
        {
          "internalType": "address",
          "name": "to",
          "type": "address"
        },
        {
          "internalType": "uint256",
          "name": "tokenId",
          "type": "uint256"
        }
      ],
      "name": "safeTransferFrom",
      "outputs": [],
      "stateMutability": "nonpayable",
      "type": "function"
    },
    {
      "inputs": [
        {
          "internalType": "address",
          "name": "from",
          "type": "address"
        },
        {
          "internalType": "address",
          "name": "to",
          "type": "address"
        },
        {
          "internalType": "uint256",
          "name": "tokenId",
          "type": "uint256"
        },
        {
          "internalType": "bytes",
          "name": "data",
          "type": "bytes"
        }
      ],
      "name": "safeTransferFrom",
      "outputs": [],
      "stateMutability": "nonpayable",
      "type": "function"
    },
    {
      "inputs": [
        {
          "internalType": "address",
          "name": "operator",
          "type": "address"
        },
        {
          "internalType": "bool",
          "name": "approved",
          "type": "bool"
        }
      ],
      "name": "setApprovalForAll",
      "outputs": [],
      "stateMutability": "nonpayable",
      "type": "function"
    },
    {
      "inputs": [
        {
          "internalType": "uint256",
          "name": "newPrice",
          "type": "uint256"
        }
      ],
      "name": "setPrice",
      "outputs": [],
      "stateMutability": "nonpayable",
      "type": "function"
    },
    {
      "inputs": [
        {
          "internalType": "bytes4",
          "name": "interfaceId",
          "type": "bytes4"
        }
      ],
      "name": "supportsInterface",
      "outputs": [
        {
          "internalType": "bool",
          "name": "",
          "type": "bool"
        }
      ],
      "stateMutability": "view",
      "type": "function"
    },
    {
      "inputs": [],
      "name": "symbol",
      "outputs": [
        {
          "internalType": "string",
          "name": "",
          "type": "string"
        }
      ],
      "stateMutability": "view",
      "type": "function"
    },
    {
      "inputs": [],
      "name": "tokenCenterContract",
      "outputs": [
        {
          "internalType": "address",
          "name": "",
          "type": "address"
        }
      ],
      "stateMutability": "view",
      "type": "function"
    },
    {
      "inputs": [
        {
          "internalType": "uint256",
          "name": "tokenId",
          "type": "uint256"
        }
      ],
      "name": "tokenURI",
      "outputs": [
        {
          "internalType": "string",
          "name": "",
          "type": "string"
        }
      ],
      "stateMutability": "view",
      "type": "function"
    },
    {
      "inputs": [
        {
          "internalType": "address",
          "name": "from",
          "type": "address"
        },
        {
          "internalType": "address",
          "name": "to",
          "type": "address"
        },
        {
          "internalType": "uint256",
          "name": "tokenId",
          "type": "uint256"
        }
      ],
      "name": "transferFrom",
      "outputs": [],
      "stateMutability": "nonpayable",
      "type": "function"
    },
    {
      "inputs": [
        {
          "internalType": "uint256",
          "name": "tokenId",
          "type": "uint256"
        },
        {
          "internalType": "address",
          "name": "to",
          "type": "address"
        }
      ],
      "name": "transferOwnership",
      "outputs": [],
      "stateMutability": "nonpayable",
      "type": "function"
    },
    {
      "inputs": [
        {
          "internalType": "address",
          "name": "newOwner",
          "type": "address"
        }
      ],
      "name": "transferOwnership",
      "outputs": [],
      "stateMutability": "nonpayable",
      "type": "function"
    },
    {
      "inputs": [],
      "name": "withdraw",
      "outputs": [],
      "stateMutability": "nonpayable",
      "type": "function"
    }
  ],
  "transactionHash": "0x237c65340b0930fe5910a87046e98f8f0a84dcd75b03a05cdc57665252e9e99b",
  "args": [
    "0xf47589977EB10095156Ef7d2Cd35d6D09C81fb65",
    "0x61A571Cfb2F68D6642A85bBD695003497c1b1DB2"
  ],
  "numDeployments": 1,
  "solcInputHash": "84c11ebbe315c051fba49ad181e9cb77",
  "bytecode": "0x6080604052655af3107a4000600a556002600c553480156200002057600080fd5b5060405162001ff938038062001ff983398101604081905262000043916200017a565b816040518060400160405280600d81526020016c2630bcb2b92a3bb7aa37b5b2b760991b8152506040518060400160405280600381526020016213151560ea1b815250816000908162000097919062000259565b506001620000a6828262000259565b5050506001600160a01b038116620000d857604051631e4fbdf760e01b81526000600482015260240160405180910390fd5b620000e3816200010b565b50600d80546001600160a01b0319166001600160a01b03929092169190911790555062000325565b600680546001600160a01b038381166001600160a01b0319831681179093556040519116919082907f8be0079c531659141344cd1fd0a4f28419497f9722a3daafe3b4186f6b6457e090600090a35050565b80516001600160a01b03811681146200017557600080fd5b919050565b600080604083850312156200018e57600080fd5b62000199836200015d565b9150620001a9602084016200015d565b90509250929050565b634e487b7160e01b600052604160045260246000fd5b600181811c90821680620001dd57607f821691505b602082108103620001fe57634e487b7160e01b600052602260045260246000fd5b50919050565b601f82111562000254576000816000526020600020601f850160051c810160208610156200022f5750805b601f850160051c820191505b8181101562000250578281556001016200023b565b5050505b505050565b81516001600160401b03811115620002755762000275620001b2565b6200028d81620002868454620001c8565b8462000204565b602080601f831160018114620002c55760008415620002ac5750858301515b600019600386901b1c1916600185901b17855562000250565b600085815260208120601f198616915b82811015620002f657888601518255948401946001909101908401620002d5565b5085821015620003155787850151600019600388901b60f8161c191681555b5050505050600190811b01905550565b611cc480620003356000396000f3fe6080604052600436106101665760003560e01c80637c3daf34116100d1578063b88d4fde1161008a578063e5d6dc1911610064578063e5d6dc191461041d578063e985e9c51461044a578063f2fde38b1461046a578063f47bfeda1461048a57600080fd5b8063b88d4fde146103bd578063c87b56dd146103dd578063cb4da8f6146103fd57600080fd5b80637c3daf341461030a5780638da5cb5b1461032a57806391b7f5ed1461034857806395d89b411461036857806399e2ad341461037d578063a22cb4651461039d57600080fd5b806329507f731161012357806329507f73146102605780633ccfd60b1461028057806342842e0e146102955780636352211e146102b557806370a08231146102d5578063715018a6146102f557600080fd5b806301ffc9a71461016b57806306fdde03146101a0578063081812fc146101c2578063095ea7b3146101fa5780632055c98a1461021c57806323b872dd14610240575b600080fd5b34801561017757600080fd5b5061018b6101863660046116e9565b61049d565b60405190151581526020015b60405180910390f35b3480156101ac57600080fd5b506101b56104ae565b6040516101979190611756565b3480156101ce57600080fd5b506101e26101dd366004611769565b610540565b6040516001600160a01b039091168152602001610197565b34801561020657600080fd5b5061021a610215366004611797565b610569565b005b34801561022857600080fd5b50610232600a5481565b604051908152602001610197565b34801561024c57600080fd5b5061021a61025b3660046117c3565b610578565b34801561026c57600080fd5b5061021a61027b366004611804565b610608565b34801561028c57600080fd5b5061021a6106b7565b3480156102a157600080fd5b5061021a6102b03660046117c3565b6106fb565b3480156102c157600080fd5b506101e26102d0366004611769565b61071b565b3480156102e157600080fd5b506102326102f0366004611834565b610726565b34801561030157600080fd5b5061021a61076e565b34801561031657600080fd5b506101b5610325366004611769565b610782565b34801561033657600080fd5b506006546001600160a01b03166101e2565b34801561035457600080fd5b5061021a610363366004611769565b61081c565b34801561037457600080fd5b506101b5610829565b34801561038957600080fd5b50610232610398366004611769565b610838565b3480156103a957600080fd5b5061021a6103b8366004611851565b6108af565b3480156103c957600080fd5b5061021a6103d8366004611910565b6108ba565b3480156103e957600080fd5b506101b56103f8366004611769565b6108d2565b34801561040957600080fd5b50600d546101e2906001600160a01b031681565b34801561042957600080fd5b50610232610438366004611769565b60096020526000908152604090205481565b34801561045657600080fd5b5061018b610465366004611990565b6108dd565b34801561047657600080fd5b5061021a610485366004611834565b61090b565b61021a6104983660046119de565b610946565b60006104a882610c81565b92915050565b6060600080546104bd90611a4b565b80601f01602080910402602001604051908101604052809291908181526020018280546104e990611a4b565b80156105365780601f1061050b57610100808354040283529160200191610536565b820191906000526020600020905b81548152906001019060200180831161051957829003601f168201915b5050505050905090565b600061054b82610ca6565b506000828152600460205260409020546001600160a01b03166104a8565b610574828233610cdf565b5050565b6001600160a01b0382166105a757604051633250574960e11b8152600060048201526024015b60405180910390fd5b60006105b4838333610cec565b9050836001600160a01b0316816001600160a01b031614610602576040516364283d7b60e01b81526001600160a01b038086166004830152602482018490528216604482015260640161059e565b50505050565b336106128361071b565b6001600160a01b0316146106685760405162461bcd60e51b815260206004820152601d60248201527f796f7520617265206e6f742074686520686f6c646572206f66204e4654000000604482015260640161059e565b610673338284610de5565b6040518281526001600160a01b0382169033907f0ea8df787dde63a7bdc34d17097adf25749a3521f660e92dabdff8d6ee91d18a9060200160405180910390a35050565b6106bf610e95565b6006546040516001600160a01b03909116904780156108fc02916000818181858888f193505050501580156106f8573d6000803e3d6000fd5b50565b610716838383604051806020016040528060008152506108ba565b505050565b60006104a882610ca6565b60006001600160a01b038216610752576040516322718ad960e21b81526000600482015260240161059e565b506001600160a01b031660009081526003602052604090205490565b610776610e95565b6107806000610ec2565b565b6008602052600090815260409020805461079b90611a4b565b80601f01602080910402602001604051908101604052809291908181526020018280546107c790611a4b565b80156108145780601f106107e957610100808354040283529160200191610814565b820191906000526020600020905b8154815290600101906020018083116107f757829003601f168201915b505050505081565b610824610e95565b600a55565b6060600180546104bd90611a4b565b6000818152600260205260408120546001600160a01b031661089c5760405162461bcd60e51b815260206004820152601860248201527f54686973205769736820646f6573206e6f742065786973740000000000000000604482015260640161059e565b5060009081526009602052604090205490565b610574338383610f14565b6108c5848484610578565b6106023385858585610fb3565b60606104a8826110de565b6001600160a01b03918216600090815260056020908152604080832093909416825291909152205460ff1690565b610913610e95565b6001600160a01b03811661093d57604051631e4fbdf760e01b81526000600482015260240161059e565b6106f881610ec2565b600a543410156109b35760405162461bcd60e51b815260206004820152603260248201527f536f7272792c20796f752073656e7420696e73756666696369656e742066756e6044820152713239903337b9103a3930b739b0b1ba34b7b760711b606482015260840161059e565b6000600a54346109c39190611a9b565b905080156109fa57604051339082156108fc029083906000818181858888f193505050501580156109f8573d6000803e3d6000fd5b505b600d546040516331a9108f60e11b8152600481018590526001600160a01b03909116906000908290636352211e90602401602060405180830381865afa158015610a48573d6000803e3d6000fd5b505050506040513d601f19601f82011682018060405250810190610a6c9190611aae565b6001600160a01b031603610ac25760405162461bcd60e51b815260206004820152601b60248201527f4e6f207374617220657869737420666f7220796f757220776973680000000000604482015260640161059e565b600c546040516324d7733360e01b8152600481018690526001600160a01b038316906324d7733390602401602060405180830381865afa158015610b0a573d6000803e3d6000fd5b505050506040513d601f19601f82011682018060405250810190610b2e9190611acb565b10610b8c5760405162461bcd60e51b815260206004820152602860248201527f4e6f206d6f726520776973686573682063616e206265206d61646520617420746044820152676869732074696d6560c01b606482015260840161059e565b6000600b60008154610b9d90611ae4565b91829055506040516301c853e560e11b8152600481018790529091506001600160a01b03831690630390a7ca90602401600060405180830381600087803b158015610be757600080fd5b505af1158015610bfb573d6000803e3d6000fd5b50505050610c0933826111ef565b610c138185611209565b6000818152600860205260409020610c2b8782611b45565b50600081815260096020526040908190208690555133907fb9203d657e9c0ec8274c818292ab0f58b04e1970050716891770eb1bab5d655e90610c719084815260200190565b60405180910390a2505050505050565b60006001600160e01b03198216632483248360e11b14806104a857506104a882611259565b6000818152600260205260408120546001600160a01b0316806104a857604051637e27328960e01b81526004810184905260240161059e565b61071683838360016112a9565b6000828152600260205260408120546001600160a01b0390811690831615610d1957610d198184866113af565b6001600160a01b03811615610d5757610d366000856000806112a9565b6001600160a01b038116600090815260036020526040902080546000190190555b6001600160a01b03851615610d86576001600160a01b0385166000908152600360205260409020805460010190555b60008481526002602052604080822080546001600160a01b0319166001600160a01b0389811691821790925591518793918516917fddf252ad1be2c89b69c2b068fc378daa952ba7f163c4a11628f55a4df523b3ef91a4949350505050565b6001600160a01b038216610e0f57604051633250574960e11b81526000600482015260240161059e565b6000610e1d83836000610cec565b90506001600160a01b038116610e4957604051637e27328960e01b81526004810183905260240161059e565b836001600160a01b0316816001600160a01b031614610602576040516364283d7b60e01b81526001600160a01b038086166004830152602482018490528216604482015260640161059e565b6006546001600160a01b031633146107805760405163118cdaa760e01b815233600482015260240161059e565b600680546001600160a01b038381166001600160a01b0319831681179093556040519116919082907f8be0079c531659141344cd1fd0a4f28419497f9722a3daafe3b4186f6b6457e090600090a35050565b6001600160a01b038216610f4657604051630b61174360e31b81526001600160a01b038316600482015260240161059e565b6001600160a01b03838116600081815260056020908152604080832094871680845294825291829020805460ff191686151590811790915591519182527f17307eab39ab6107e8899845ad3d59bd9653f200f220920489ca2b5937696c31910160405180910390a3505050565b6001600160a01b0383163b156110d757604051630a85bd0160e11b81526001600160a01b0384169063150b7a0290610ff5908890889087908790600401611c05565b6020604051808303816000875af1925050508015611030575060408051601f3d908101601f1916820190925261102d91810190611c42565b60015b611099573d80801561105e576040519150601f19603f3d011682016040523d82523d6000602084013e611063565b606091505b50805160000361109157604051633250574960e11b81526001600160a01b038516600482015260240161059e565b805181602001fd5b6001600160e01b03198116630a85bd0160e11b146110d557604051633250574960e11b81526001600160a01b038516600482015260240161059e565b505b5050505050565b60606110e982610ca6565b506000828152600760205260408120805461110390611a4b565b80601f016020809104026020016040519081016040528092919081815260200182805461112f90611a4b565b801561117c5780601f106111515761010080835404028352916020019161117c565b820191906000526020600020905b81548152906001019060200180831161115f57829003601f168201915b50505050509050600061119a60408051602081019091526000815290565b905080516000036111ac575092915050565b8151156111de5780826040516020016111c6929190611c5f565b60405160208183030381529060405292505050919050565b6111e784611413565b949350505050565b610574828260405180602001604052806000815250611488565b60008281526007602052604090206112218282611b45565b506040518281527ff8e1a15aba9398e019f0b49df1a4fde98ee17ae345cb5f6b5e2c27f5033e8ce79060200160405180910390a15050565b60006001600160e01b031982166380ac58cd60e01b148061128a57506001600160e01b03198216635b5e139f60e01b145b806104a857506301ffc9a760e01b6001600160e01b03198316146104a8565b80806112bd57506001600160a01b03821615155b1561137f5760006112cd84610ca6565b90506001600160a01b038316158015906112f95750826001600160a01b0316816001600160a01b031614155b801561130c575061130a81846108dd565b155b156113355760405163a9fbf51f60e01b81526001600160a01b038416600482015260240161059e565b811561137d5783856001600160a01b0316826001600160a01b03167f8c5be1e5ebec7d5bd14f71427d1e84f3dd0314c0f7b2291e5b200ac8c7c3b92560405160405180910390a45b505b5050600090815260046020526040902080546001600160a01b0319166001600160a01b0392909216919091179055565b6113ba8383836114a0565b610716576001600160a01b0383166113e857604051637e27328960e01b81526004810182905260240161059e565b60405163177e802f60e01b81526001600160a01b03831660048201526024810182905260440161059e565b606061141e82610ca6565b50600061143660408051602081019091526000815290565b905060008151116114565760405180602001604052806000815250611481565b8061146084611503565b604051602001611471929190611c5f565b6040516020818303038152906040525b9392505050565b6114928383611596565b610716336000858585610fb3565b60006001600160a01b038316158015906111e75750826001600160a01b0316846001600160a01b031614806114da57506114da84846108dd565b806111e75750506000908152600460205260409020546001600160a01b03908116911614919050565b60606000611510836115fb565b600101905060008167ffffffffffffffff81111561153057611530611884565b6040519080825280601f01601f19166020018201604052801561155a576020820181803683370190505b5090508181016020015b600019016f181899199a1a9b1b9c1cb0b131b232b360811b600a86061a8153600a850494508461156457509392505050565b6001600160a01b0382166115c057604051633250574960e11b81526000600482015260240161059e565b60006115ce83836000610cec565b90506001600160a01b03811615610716576040516339e3563760e11b81526000600482015260240161059e565b60008072184f03e93ff9f4daa797ed6e38ed64bf6a1f0160401b831061163a5772184f03e93ff9f4daa797ed6e38ed64bf6a1f0160401b830492506040015b6d04ee2d6d415b85acef81000000008310611666576d04ee2d6d415b85acef8100000000830492506020015b662386f26fc10000831061168457662386f26fc10000830492506010015b6305f5e100831061169c576305f5e100830492506008015b61271083106116b057612710830492506004015b606483106116c2576064830492506002015b600a83106104a85760010192915050565b6001600160e01b0319811681146106f857600080fd5b6000602082840312156116fb57600080fd5b8135611481816116d3565b60005b83811015611721578181015183820152602001611709565b50506000910152565b60008151808452611742816020860160208601611706565b601f01601f19169290920160200192915050565b602081526000611481602083018461172a565b60006020828403121561177b57600080fd5b5035919050565b6001600160a01b03811681146106f857600080fd5b600080604083850312156117aa57600080fd5b82356117b581611782565b946020939093013593505050565b6000806000606084860312156117d857600080fd5b83356117e381611782565b925060208401356117f381611782565b929592945050506040919091013590565b6000806040838503121561181757600080fd5b82359150602083013561182981611782565b809150509250929050565b60006020828403121561184657600080fd5b813561148181611782565b6000806040838503121561186457600080fd5b823561186f81611782565b91506020830135801515811461182957600080fd5b634e487b7160e01b600052604160045260246000fd5b600067ffffffffffffffff808411156118b5576118b5611884565b604051601f8501601f19908116603f011681019082821181831017156118dd576118dd611884565b816040528093508581528686860111156118f657600080fd5b858560208301376000602087830101525050509392505050565b6000806000806080858703121561192657600080fd5b843561193181611782565b9350602085013561194181611782565b925060408501359150606085013567ffffffffffffffff81111561196457600080fd5b8501601f8101871361197557600080fd5b6119848782356020840161189a565b91505092959194509250565b600080604083850312156119a357600080fd5b82356119ae81611782565b9150602083013561182981611782565b600082601f8301126119cf57600080fd5b6114818383356020850161189a565b6000806000606084860312156119f357600080fd5b833567ffffffffffffffff80821115611a0b57600080fd5b611a17878388016119be565b9450602086013593506040860135915080821115611a3457600080fd5b50611a41868287016119be565b9150509250925092565b600181811c90821680611a5f57607f821691505b602082108103611a7f57634e487b7160e01b600052602260045260246000fd5b50919050565b634e487b7160e01b600052601160045260246000fd5b818103818111156104a8576104a8611a85565b600060208284031215611ac057600080fd5b815161148181611782565b600060208284031215611add57600080fd5b5051919050565b600060018201611af657611af6611a85565b5060010190565b601f821115610716576000816000526020600020601f850160051c81016020861015611b265750805b601f850160051c820191505b818110156110d557828155600101611b32565b815167ffffffffffffffff811115611b5f57611b5f611884565b611b7381611b6d8454611a4b565b84611afd565b602080601f831160018114611ba85760008415611b905750858301515b600019600386901b1c1916600185901b1785556110d5565b600085815260208120601f198616915b82811015611bd757888601518255948401946001909101908401611bb8565b5085821015611bf55787850151600019600388901b60f8161c191681555b5050505050600190811b01905550565b6001600160a01b0385811682528416602082015260408101839052608060608201819052600090611c389083018461172a565b9695505050505050565b600060208284031215611c5457600080fd5b8151611481816116d3565b60008351611c71818460208801611706565b835190830190611c85818360208801611706565b0194935050505056fea264697066735822122054c09490aad4f845512a7f6bf7b6d9b8fcb9b40f5a5aaec5ac06ad121941f19b64736f6c63430008160033",
  "devdoc": {
    "errors": {
      "ERC721IncorrectOwner(address,uint256,address)": [
        {
          "details": "Indicates an error related to the ownership over a particular token. Used in transfers.",
          "params": {
            "owner": "Address of the current owner of a token.",
            "sender": "Address whose tokens are being transferred.",
            "tokenId": "Identifier number of a token."
          }
        }
      ],
      "ERC721InsufficientApproval(address,uint256)": [
        {
          "details": "Indicates a failure with the `operator`s approval. Used in transfers.",
          "params": {
            "operator": "Address that may be allowed to operate on tokens without being their owner.",
            "tokenId": "Identifier number of a token."
          }
        }
      ],
      "ERC721InvalidApprover(address)": [
        {
          "details": "Indicates a failure with the `approver` of a token to be approved. Used in approvals.",
          "params": {
            "approver": "Address initiating an approval operation."
          }
        }
      ],
      "ERC721InvalidOperator(address)": [
        {
          "details": "Indicates a failure with the `operator` to be approved. Used in approvals.",
          "params": {
            "operator": "Address that may be allowed to operate on tokens without being their owner."
          }
        }
      ],
      "ERC721InvalidOwner(address)": [
        {
          "details": "Indicates that an address can't be an owner. For example, `address(0)` is a forbidden owner in ERC-20. Used in balance queries.",
          "params": {
            "owner": "Address of the current owner of a token."
          }
        }
      ],
      "ERC721InvalidReceiver(address)": [
        {
          "details": "Indicates a failure with the token `receiver`. Used in transfers.",
          "params": {
            "receiver": "Address to which tokens are being transferred."
          }
        }
      ],
      "ERC721InvalidSender(address)": [
        {
          "details": "Indicates a failure with the token `sender`. Used in transfers.",
          "params": {
            "sender": "Address whose tokens are being transferred."
          }
        }
      ],
      "ERC721NonexistentToken(uint256)": [
        {
          "details": "Indicates a `tokenId` whose `owner` is the zero address.",
          "params": {
            "tokenId": "Identifier number of a token."
          }
        }
      ],
      "OwnableInvalidOwner(address)": [
        {
          "details": "The owner is not a valid owner account. (eg. `address(0)`)"
        }
      ],
      "OwnableUnauthorizedAccount(address)": [
        {
          "details": "The caller account is not authorized to perform an operation."
        }
      ]
    },
    "events": {
      "Approval(address,address,uint256)": {
        "details": "Emitted when `owner` enables `approved` to manage the `tokenId` token."
      },
      "ApprovalForAll(address,address,bool)": {
        "details": "Emitted when `owner` enables or disables (`approved`) `operator` to manage all of its assets."
      },
      "BatchMetadataUpdate(uint256,uint256)": {
        "details": "This event emits when the metadata of a range of tokens is changed. So that the third-party platforms such as NFT market could timely update the images and related attributes of the NFTs."
      },
      "MetadataUpdate(uint256)": {
        "details": "This event emits when the metadata of a token is changed. So that the third-party platforms such as NFT market could timely update the images and related attributes of the NFT."
      },
      "Transfer(address,address,uint256)": {
        "details": "Emitted when `tokenId` token is transferred from `from` to `to`."
      }
    },
    "kind": "dev",
    "methods": {
      "approve(address,uint256)": {
        "details": "See {IERC721-approve}."
      },
      "balanceOf(address)": {
        "details": "See {IERC721-balanceOf}."
      },
      "getApproved(uint256)": {
        "details": "See {IERC721-getApproved}."
      },
      "isApprovedForAll(address,address)": {
        "details": "See {IERC721-isApprovedForAll}."
      },
      "name()": {
        "details": "See {IERC721Metadata-name}."
      },
      "owner()": {
        "details": "Returns the address of the current owner."
      },
      "ownerOf(uint256)": {
        "details": "See {IERC721-ownerOf}."
      },
      "renounceOwnership()": {
        "details": "Leaves the contract without owner. It will not be possible to call `onlyOwner` functions. Can only be called by the current owner. NOTE: Renouncing ownership will leave the contract without an owner, thereby disabling any functionality that is only available to the owner."
      },
      "safeTransferFrom(address,address,uint256)": {
        "details": "See {IERC721-safeTransferFrom}."
      },
      "safeTransferFrom(address,address,uint256,bytes)": {
        "details": "See {IERC721-safeTransferFrom}."
      },
      "setApprovalForAll(address,bool)": {
        "details": "See {IERC721-setApprovalForAll}."
      },
      "symbol()": {
        "details": "See {IERC721Metadata-symbol}."
      },
      "transferFrom(address,address,uint256)": {
        "details": "See {IERC721-transferFrom}."
      },
      "transferOwnership(address)": {
        "details": "Transfers ownership of the contract to a new account (`newOwner`). Can only be called by the current owner."
      }
    },
    "version": 1
  },
  "userdoc": {
    "events": {
      "Minted(uint256,address)": {
        "notice": "EVENTS"
      }
    },
    "kind": "user",
    "methods": {
      "constructor": {
        "notice": "FUNCTIONS"
      },
      "layerTwoInfoBank(uint256)": {
        "notice": "VARS"
      },
      "mintTokenTwo(string,uint256,string)": {
        "notice": "LAYER TWO"
      }
    },
    "version": 1
  },
  "storageLayout": {
    "storage": [
      {
        "astId": 349,
        "contract": "contracts/WishTokens.sol:WishTokens",
        "label": "_name",
        "offset": 0,
        "slot": "0",
        "type": "t_string_storage"
      },
      {
        "astId": 351,
        "contract": "contracts/WishTokens.sol:WishTokens",
        "label": "_symbol",
        "offset": 0,
        "slot": "1",
        "type": "t_string_storage"
      },
      {
        "astId": 355,
        "contract": "contracts/WishTokens.sol:WishTokens",
        "label": "_owners",
        "offset": 0,
        "slot": "2",
        "type": "t_mapping(t_uint256,t_address)"
      },
      {
        "astId": 359,
        "contract": "contracts/WishTokens.sol:WishTokens",
        "label": "_balances",
        "offset": 0,
        "slot": "3",
        "type": "t_mapping(t_address,t_uint256)"
      },
      {
        "astId": 363,
        "contract": "contracts/WishTokens.sol:WishTokens",
        "label": "_tokenApprovals",
        "offset": 0,
        "slot": "4",
        "type": "t_mapping(t_uint256,t_address)"
      },
      {
        "astId": 369,
        "contract": "contracts/WishTokens.sol:WishTokens",
        "label": "_operatorApprovals",
        "offset": 0,
        "slot": "5",
        "type": "t_mapping(t_address,t_mapping(t_address,t_bool))"
      },
      {
        "astId": 8,
        "contract": "contracts/WishTokens.sol:WishTokens",
        "label": "_owner",
        "offset": 0,
        "slot": "6",
        "type": "t_address"
      },
      {
        "astId": 1436,
        "contract": "contracts/WishTokens.sol:WishTokens",
        "label": "_tokenURIs",
        "offset": 0,
        "slot": "7",
        "type": "t_mapping(t_uint256,t_string_storage)"
      },
      {
        "astId": 6814,
        "contract": "contracts/WishTokens.sol:WishTokens",
        "label": "layerTwoInfoBank",
        "offset": 0,
        "slot": "8",
        "type": "t_mapping(t_uint256,t_string_storage)"
      },
      {
        "astId": 6818,
        "contract": "contracts/WishTokens.sol:WishTokens",
        "label": "layerTolayerConnection",
        "offset": 0,
        "slot": "9",
        "type": "t_mapping(t_uint256,t_uint256)"
      },
      {
        "astId": 6825,
        "contract": "contracts/WishTokens.sol:WishTokens",
        "label": "priceLTT",
        "offset": 0,
        "slot": "10",
        "type": "t_uint256"
      },
      {
        "astId": 6827,
        "contract": "contracts/WishTokens.sol:WishTokens",
        "label": "_tokenCountLTT",
        "offset": 0,
        "slot": "11",
        "type": "t_uint256"
      },
      {
        "astId": 6830,
        "contract": "contracts/WishTokens.sol:WishTokens",
        "label": "LTTLimit",
        "offset": 0,
        "slot": "12",
        "type": "t_uint256"
      },
      {
        "astId": 6832,
        "contract": "contracts/WishTokens.sol:WishTokens",
        "label": "tokenCenterContract",
        "offset": 0,
        "slot": "13",
        "type": "t_address"
      }
    ],
    "types": {
      "t_address": {
        "encoding": "inplace",
        "label": "address",
        "numberOfBytes": "20"
      },
      "t_bool": {
        "encoding": "inplace",
        "label": "bool",
        "numberOfBytes": "1"
      },
      "t_mapping(t_address,t_bool)": {
        "encoding": "mapping",
        "key": "t_address",
        "label": "mapping(address => bool)",
        "numberOfBytes": "32",
        "value": "t_bool"
      },
      "t_mapping(t_address,t_mapping(t_address,t_bool))": {
        "encoding": "mapping",
        "key": "t_address",
        "label": "mapping(address => mapping(address => bool))",
        "numberOfBytes": "32",
        "value": "t_mapping(t_address,t_bool)"
      },
      "t_mapping(t_address,t_uint256)": {
        "encoding": "mapping",
        "key": "t_address",
        "label": "mapping(address => uint256)",
        "numberOfBytes": "32",
        "value": "t_uint256"
      },
      "t_mapping(t_uint256,t_address)": {
        "encoding": "mapping",
        "key": "t_uint256",
        "label": "mapping(uint256 => address)",
        "numberOfBytes": "32",
        "value": "t_address"
      },
      "t_mapping(t_uint256,t_string_storage)": {
        "encoding": "mapping",
        "key": "t_uint256",
        "label": "mapping(uint256 => string)",
        "numberOfBytes": "32",
        "value": "t_string_storage"
      },
      "t_mapping(t_uint256,t_uint256)": {
        "encoding": "mapping",
        "key": "t_uint256",
        "label": "mapping(uint256 => uint256)",
        "numberOfBytes": "32",
        "value": "t_uint256"
      },
      "t_string_storage": {
        "encoding": "bytes",
        "label": "string",
        "numberOfBytes": "32"
      },
      "t_uint256": {
        "encoding": "inplace",
        "label": "uint256",
        "numberOfBytes": "32"
      }
    }
  }
}